{
  "contractName": "Withdrawal",
  "abi": [
    {
      "inputs": [],
      "name": "withdraw",
      "outputs": [],
      "stateMutability": "nonpayable",
      "type": "function"
    }
  ],
  "bytecode": "0x608060405234801561001057600080fd5b50610141806100206000396000f3fe608060405234801561001057600080fd5b506004361061002b5760003560e01c80633ccfd60b14610030575b600080fd5b61003861003a565b005b60008060003373ffffffffffffffffffffffffffffffffffffffff1673ffffffffffffffffffffffffffffffffffffffff16815260200190815260200160002054905060008060003373ffffffffffffffffffffffffffffffffffffffff1673ffffffffffffffffffffffffffffffffffffffff168152602001908152602001600020819055503373ffffffffffffffffffffffffffffffffffffffff166108fc829081150290604051600060405180830381858888f19350505050158015610107573d6000803e3d6000fd5b505056fea26469706673582212203bbf56380b944a7fe914b6d03ae19249b882204f0570a4cd96abb08e2de4afe464736f6c63430006020033",
  "source": "pragma solidity >=0.5.10;\n\n///@title Withdrawal Pattern\ncontract Withdrawal {\n    /// @author Cyril Attie\n    /// @notice allows secure withdrawal of funds\n\n    mapping(address => uint256) pendingWithdrawals;\n\n    function withdraw() public {\n        ///@notice withdraw your funds\n        uint256 amount = pendingWithdrawals[msg.sender];\n        pendingWithdrawals[msg.sender] = 0;\n        msg.sender.transfer(amount);\n    }\n}\n\n\n",
  "sourcePath": "/home/tumbling20s/_ConsenSys/final-project-app/contracts/Withdrawal.sol",
  "compiler": {
    "name": "solc",
    "version": "0.6.2+commit.bacdbe57.Emscripten.clang"
  },
  "schemaVersion": "3.0.20",
  "updatedAt": "2020-02-02T08:49:25.107Z",
  "networkType": "ethereum",
  "devdoc": {
    "methods": {},
    "title": "Withdrawal Pattern"
  },
  "userdoc": {
    "methods": {}
  }
}